:100000003AC08DC153C052C051C050C04FC04EC045
:100010004DC04CC04BC04AC049C048C047C046C094
:1000200045C044C043C00902120001010080050917
:10003000040000000000000012011001FF00000891
:10004000030431C6050101020001160375007300A7
:1000500062002D0074006F002D0069003200630003
:100060000E0353006100730061006E006B00040317
:1000700009040100FF8E11241FBECFE5D4E0DEBFCE
:10008000CDBF10E0A0E6B0E0E8E7F8E002C00590E0
:100090000D92A636B107D9F720E0A6E6B0E001C080
:1000A0001D92A939B207E1F7B3D3E4C3A9CFCF9327
:1000B000DF9360917F00635067FDA4C080917C0056
:1000C000CCE0D0E0C81BD109CD57DF4F80917B0039
:1000D0008D3209F086C0683009F092C083EC8093BD
:1000E0006F008AE5809361001092660088818076B7
:1000F00031F0CE0192D28F3F09F462C068C08A818C
:10010000109278009981911106C01092790028E729
:1001100030E082E050C0953019F4809380003DC0FB
:100120009630A9F59B81913019F488E390E004C0E2
:10013000923041F486E290E090937E0080937D00BF
:1001400082E121C09330F1F4811108C08EE690E085
:1001500090937E0080937D0084E015C0813041F44F
:1001600080E690E090937E0080937D008EE00BC04F
:10017000823041F48AE490E090937E0080937D0089
:1001800086E101C080E090E49093660020C0983042
:1001900079F0993031F48093820028E730E080E0F4
:1001A0000AC081E09A3009F080E028E730E003C01F
:1001B00022E830E081E030937E0020937D0007C08C
:1001C000988197FD8E8190E89093660007C09F818B
:1001D000911104C09E81981708F4892F80936000C4
:1001E0000FC08091660087FF0BC0CE01D7D28F3F32
:1001F00021F48EE18093610003C0811110926000B0
:1002000010927F008091610084FF55C08091600052
:100210008F3F09F450C0C82F893008F0C8E08C1B0C
:100220008093600090916F0088E8892780936F0029
:10023000CC2309F44BC02091660027FF08C06C2F27
:1002400080E790E06AD2C82F893078F523C080918A
:100250007D0090917E0026FF0AC0A0E7B0E0FC017F
:100260002C2F34913D9331962150D9F708C0DC01F1
:10027000E0E7F0E02C2F3D9131932150E1F72FEF93
:100280002C0F30E02F5F3F4F820F931F90937E0023
:1002900080937D006C2F80E790E03DD0CC5FCC3028
:1002A00041F08FEF8093600004C08FEF8093600077
:1002B000CEE1C093610084E190B3947169F4815000
:1002C000D9F71092800010927A0006C060E080E7B3
:1002D00090E021D0C4E0E5CFDF91CF91089585B7BC
:1002E000836085BF8BB780648BBF0895A82FB92F1B
:1002F00080E090E041E050EA609530E009C02D9147
:1003000082279795879510F084279527305EC8F34C
:100310006F5FA8F30895EADF8D939D930895CF93BF
:10032000CFB7CF93DF93C395849BE9F7849B0BC032
:10033000849B09C0849B07C0849B05C0849B03C029
:10034000849B01C089C06F93C0917C00DD27CD578D
:10035000DF4F2F9365E5849B03C02F916F91E6CF0C
:100360000F931F934F9320E040E15F9300B304711C
:1003700004FB27F93F9350E03BE039C0147140641F
:100380002F77012F5F5F1EC0406810B314712F7765
:1003900052501FC0406400B32F770471D1F15F5FEA
:1003A00000C023C0406210B32F77147191F15F5FDA
:1003B00000C025C004711027515012F45D5F000089
:1003C000115027952C3F10B3C8F614710127015026
:1003D00027952C3FC8F64227499300B30471102794
:1003E0004F73115027952C3FA8F64695469510B3AC
:1003F000147179F00127015027952C3F98F66B5A1C
:1004000060F3315000B3B0F600C010E41ABF00270B
:1004100017C03B503195C31BD04010E41ABF088170
:10042000033CF9F00B34E9F020917A001981110FA7
:100430001213EDCF093651F10D3211F0013E39F7AB
:10044000009381003F915F914F911F910F912F91E8
:100450006F91CAB7C6FD67CFDF91CF91CFBFCF9164
:10046000189520918100222369F310917F001123B8
:1004700039F534303AF130937F0020937B001091AE
:100480007C003BE0311B30937C001CC000917F005E
:100490000130B4F40AE53091610034FD14C00093DA
:1004A0006100CFE6D0E013C0052710E000C00000D7
:1004B00002BB1AC0052710E0221F1DC010E021C09A
:1004C0004AE502C032ED432FC4E1D0E032E011B37F
:1004D0001461949A02B311BB54E120E865E320FF54
:1004E000052702BB279517951C3FF0F66695B8F7D0
:1004F000B1F720FF052702BB279517951C3FD0F6C3
:100500002795179517FF052700001C3F02BBB0F683
:1005100029913A9519F70B7E10918000110FC65161
:10052000D04002BB11F010937A0010E41ABF0061B2
:1005300011B31B7E402F4B7E54E05A95F1F702BB5E
:1005400011BB42BB7FCFE0916200F0916300319715
:10055000F1F7882329F0A598AD9A9D9BFECF02C0A4
:10056000A59AAD9880916400909165000197F1F78C
:100570000895A498AC9A0895A49AAC980895FCDFC5
:1005800081E0E1DFF6CF0F931F93CF93DF93C7E0B6
:10059000D0E0082F10E0C8010C2E02C09595879579
:1005A0000A94E2F780FF02C0E4DF01C0E5DF81E0EA
:1005B000CADF80E0C8DF219770F7DBDF81E0C3DFAF
:1005C000C3B380E0C0DFC295C17081E08C27DF91AA
:1005D000CF911F910F9108951F93CF93DF93182F01
:1005E000C8DF80E0B0DFD8E0C0E081E0ACDFCC0F56
:1005F0009C99C16080E0A7DFD150B9F7112311F0B9
:10060000B8DF01C0B9DF81E09EDF80E09CDFB1DFB1
:100610008C2FDF91CF911F9108951F93CF93DF937C
:10062000EC0187E690E090937E0080937D009981B5
:100630009230E9F070F4992391F0913009F068C09C
:1006400044E050E062E770E087E690E003D184E0A8
:1006500060C0933009F456C0983010F159C08A81B7
:10066000809367008B818093680082E052C08A810A
:100670009B81009711F481E090E090936500809356
:10068000640080916400909165009695879500972D
:1006900011F481E090E0909363008093620038C091
:1006A0001C81110F8A8180FD116090FD03C061DF04
:1006B00081E049DF61DF80E046DF812F64DF811167
:1006C00008C082E080936B0010926E0010926D0063
:1006D00010C081E080936B008E819F8190936E00AB
:1006E00080936D00298120936C0021FF03C0892B2A
:1006F00009F445DF81E02E813F81232B09F480E05E
:10070000819507C080916B008093670081E001C0F4
:1007100080E0DF91CF911F9108950F931F93CF93A6
:10072000DF93082F162F80916B00462F50E0813009
:1007300059F520916D0030916E002417350708F4AB
:10074000122F802FEC018C2F801B811788F42091B1
:100750006D0030916E002150310930936E0020936E
:100760006D0081E0232B09F080E036DF8993EBCF29
:1007700080916C0081FF0CC080916D0090916E00A3
:10078000892B31F4FCDE04C060E070E0802F6BD078
:10079000812FDF91CF911F910F9108950F931F9398
:1007A000CF93DF93162F20916B00462F50E021301E
:1007B00031F520916D0030916E002417350708F453
:1007C000122F082FEC018C2F801B811760F4809171
:1007D0006D0090916E00019790936E0080936D0074
:1007E0008991D1DEF0CF80916C0081FF0BC08091A8
:1007F0006D0090916E00892B29F4C1DE03C060E08A
:1008000070E031D0812FDF91CF911F910F9108952A
:100810009EE088E10FB6F894A89581BD0FBE91BD0A
:10082000A498AC9AA598AD9A10926E0010926D00A3
:1008300082B38B7E82BB81B3846181BB80E49CE9FF
:100840000197F1F781B38B7E81BB49DD7894A89540
:100850002EDCFDCFFB01DC0102C005900D92415062
:100860005040D8F70895DC0101C06D9341505040CD
:08087000E0F70895F894FFCFB2
:06087800FF5A05000A0012
:00000001FF
